{
  "contractName": "simple",
  "abi": [
    {
      "constant": true,
      "inputs": [],
      "name": "name",
      "outputs": [
        {
          "name": "",
          "type": "string"
        }
      ],
      "payable": false,
      "stateMutability": "view",
      "type": "function"
    },
    {
      "constant": true,
      "inputs": [],
      "name": "age",
      "outputs": [
        {
          "name": "",
          "type": "uint256"
        }
      ],
      "payable": false,
      "stateMutability": "view",
      "type": "function"
    },
    {
      "constant": false,
      "inputs": [
        {
          "name": "_name",
          "type": "string"
        }
      ],
      "name": "changeName",
      "outputs": [],
      "payable": false,
      "stateMutability": "nonpayable",
      "type": "function"
    },
    {
      "constant": false,
      "inputs": [
        {
          "name": "_age",
          "type": "uint256"
        }
      ],
      "name": "changeAge",
      "outputs": [],
      "payable": false,
      "stateMutability": "nonpayable",
      "type": "function"
    }
  ],
  "bytecode": "0x608060405234801561001057600080fd5b50610351806100206000396000f300608060405260043610610062576000357c0100000000000000000000000000000000000000000000000000000000900463ffffffff16806306fdde0314610067578063262a9dff146100f75780635353a2d8146101225780635e439f661461018b575b600080fd5b34801561007357600080fd5b5061007c6101b8565b6040518080602001828103825283818151815260200191508051906020019080838360005b838110156100bc5780820151818401526020810190506100a1565b50505050905090810190601f1680156100e95780820380516001836020036101000a031916815260200191505b509250505060405180910390f35b34801561010357600080fd5b5061010c610256565b6040518082815260200191505060405180910390f35b34801561012e57600080fd5b50610189600480360381019080803590602001908201803590602001908080601f016020809104026020016040519081016040528093929190818152602001838380828437820191505050505050919291929050505061025c565b005b34801561019757600080fd5b506101b660048036038101908080359060200190929190505050610276565b005b60008054600181600116156101000203166002900480601f01602080910402602001604051908101604052809291908181526020018280546001816001161561010002031660029004801561024e5780601f106102235761010080835404028352916020019161024e565b820191906000526020600020905b81548152906001019060200180831161023157829003601f168201915b505050505081565b60015481565b8060009080519060200190610272929190610280565b5050565b8060018190555050565b828054600181600116156101000203166002900490600052602060002090601f016020900481019282601f106102c157805160ff19168380011785556102ef565b828001600101855582156102ef579182015b828111156102ee5782518255916020019190600101906102d3565b5b5090506102fc9190610300565b5090565b61032291905b8082111561031e576000816000905550600101610306565b5090565b905600a165627a7a723058203a1adc430d671d449d12fde89770b69101624760061536544b3190fa268c1cb70029",
  "source": "pragma solidity ^0.4.0;\r\n\r\ncontract simple {\r\n    string public name;\r\n    uint public age;\r\n    \r\n    function changeName (string _name) public {\r\n        name = _name;\r\n    }\r\n    \r\n    function changeAge (uint _age) public {\r\n        age = _age;\r\n    }\r\n}",
  "sourcePath": "/home/truffle/contracts/demo.sol",
  "compiler": {
    "name": "solc",
    "version": "0.4.24+commit.e67f0147.Emscripten.clang"
  },
  "schemaVersion": "3.0.20",
  "updatedAt": "2019-12-22T10:33:34.262Z",
  "devdoc": {
    "methods": {}
  },
  "userdoc": {
    "methods": {}
  }
}